{
  "contractName": "Land",
  "abi": [
    {
      "inputs": [],
      "stateMutability": "nonpayable",
      "type": "constructor"
    },
    {
      "inputs": [
        {
          "internalType": "address",
          "name": "_addr",
          "type": "address"
        },
        {
          "internalType": "uint256",
          "name": "_secP",
          "type": "uint256"
        }
      ],
      "name": "isContractOwner",
      "outputs": [
        {
          "internalType": "uint256",
          "name": "",
          "type": "uint256"
        }
      ],
      "stateMutability": "nonpayable",
      "type": "function"
    },
    {
      "inputs": [
        {
          "internalType": "address",
          "name": "_addr",
          "type": "address"
        }
      ],
      "name": "changeContractOwner",
      "outputs": [],
      "stateMutability": "nonpayable",
      "type": "function"
    }
  ],
  "bytecode": "0x608060405234801561001057600080fd5b50336000806101000a81548173ffffffffffffffffffffffffffffffffffffffff021916908373ffffffffffffffffffffffffffffffffffffffff160217905550610486806100606000396000f3fe608060405234801561001057600080fd5b50600436106100365760003560e01c80633ead67b51461003b578063705cb1a914610057575b600080fd5b61005560048036038101906100509190610306565b610087565b005b610071600480360381019061006c9190610369565b610158565b60405161007e91906103b8565b60405180910390f35b60008054906101000a900473ffffffffffffffffffffffffffffffffffffffff1673ffffffffffffffffffffffffffffffffffffffff163373ffffffffffffffffffffffffffffffffffffffff1614610115576040517f08c379a000000000000000000000000000000000000000000000000000000000815260040161010c90610430565b60405180910390fd5b806000806101000a81548173ffffffffffffffffffffffffffffffffffffffff021916908373ffffffffffffffffffffffffffffffffffffffff16021790555050565b6000806001905060006002905060006003905060008054906101000a900473ffffffffffffffffffffffffffffffffffffffff1673ffffffffffffffffffffffffffffffffffffffff168673ffffffffffffffffffffffffffffffffffffffff161480156101c65750607b85145b156101d65782935050505061029d565b60008054906101000a900473ffffffffffffffffffffffffffffffffffffffff1673ffffffffffffffffffffffffffffffffffffffff168673ffffffffffffffffffffffffffffffffffffffff16148015610232575061014185145b156102965773ab8483f64d9c6d1ecf9b849ae677dd3315835cb26000806101000a81548173ffffffffffffffffffffffffffffffffffffffff021916908373ffffffffffffffffffffffffffffffffffffffff16021790555081935050505061029d565b8093505050505b92915050565b600080fd5b600073ffffffffffffffffffffffffffffffffffffffff82169050919050565b60006102d3826102a8565b9050919050565b6102e3816102c8565b81146102ee57600080fd5b50565b600081359050610300816102da565b92915050565b60006020828403121561031c5761031b6102a3565b5b600061032a848285016102f1565b91505092915050565b6000819050919050565b61034681610333565b811461035157600080fd5b50565b6000813590506103638161033d565b92915050565b600080604083850312156103805761037f6102a3565b5b600061038e858286016102f1565b925050602061039f85828601610354565b9150509250929050565b6103b281610333565b82525050565b60006020820190506103cd60008301846103a9565b92915050565b600082825260208201905092915050565b7f796f7520617265206e6f7420636f6e74726163744f776e657200000000000000600082015250565b600061041a6019836103d3565b9150610425826103e4565b602082019050919050565b600060208201905081810360008301526104498161040d565b905091905056fea2646970667358221220069bad684ee8a70498a13b34c8c099941775accd5de99ba98977b75eebe24af164736f6c634300080e0033",
  "immutableReferences": {},
  "source": "// SPDX-License-Identifier: UNLICENSED\r\n\r\npragma solidity >= 0.5.2;\r\n\r\ncontract Land {\r\n    address contractOwner;\r\n\r\n    constructor() public{\r\n        contractOwner = msg.sender;\r\n    }\r\n\r\n    \r\n    function isContractOwner(address _addr, uint _secP) public returns(uint){\r\n        uint x = 1;\r\n        uint y = 2;\r\n        uint z = 3;\r\n        if(_addr==contractOwner && _secP == 123)\r\n            return x;\r\n        else if(_addr == contractOwner && _secP == 321){\r\n            contractOwner = 0xAb8483F64d9C6d1EcF9b849Ae677dD3315835cb2;\r\n            return y;\r\n        }  \r\n        else\r\n            return z;\r\n    }\r\n\r\n    function changeContractOwner(address _addr)public {\r\n        require(msg.sender==contractOwner,\"you are not contractOwner\");\r\n\r\n        contractOwner=_addr;\r\n    }\r\n\r\n}",
  "sourcePath": "C:\\Users\\hamza\\Desktop\\EthLand\\backend\\contracts\\EthLand.sol",
  "compiler": {
    "name": "solc",
    "version": "0.8.14+commit.80d49f37.Emscripten.clang"
  },
  "schemaVersion": "3.4.7",
  "updatedAt": "2022-07-20T12:48:39.398Z",
  "networkType": "ethereum",
  "devdoc": {
    "kind": "dev",
    "methods": {},
    "version": 1
  },
  "userdoc": {
    "kind": "user",
    "methods": {},
    "version": 1
  }
}