{
  "contractName": "Land",
  "abi": [
    {
      "inputs": [],
      "stateMutability": "nonpayable",
      "type": "constructor"
    },
    {
      "inputs": [
        {
          "internalType": "address",
          "name": "",
          "type": "address"
        }
      ],
      "name": "AdminMapping",
      "outputs": [
        {
          "internalType": "uint256",
          "name": "id",
          "type": "uint256"
        },
        {
          "internalType": "address",
          "name": "_addr",
          "type": "address"
        },
        {
          "internalType": "string",
          "name": "name",
          "type": "string"
        },
        {
          "internalType": "uint256",
          "name": "age",
          "type": "uint256"
        },
        {
          "internalType": "string",
          "name": "designation",
          "type": "string"
        },
        {
          "internalType": "string",
          "name": "city",
          "type": "string"
        }
      ],
      "stateMutability": "view",
      "type": "function",
      "constant": true
    },
    {
      "inputs": [
        {
          "internalType": "address",
          "name": "_addr",
          "type": "address"
        },
        {
          "internalType": "uint256",
          "name": "_secP",
          "type": "uint256"
        }
      ],
      "name": "isSuperAdmin",
      "outputs": [
        {
          "internalType": "uint256",
          "name": "",
          "type": "uint256"
        }
      ],
      "stateMutability": "nonpayable",
      "type": "function"
    },
    {
      "inputs": [
        {
          "internalType": "address",
          "name": "_addr",
          "type": "address"
        }
      ],
      "name": "changeSuperAdmin",
      "outputs": [],
      "stateMutability": "nonpayable",
      "type": "function"
    },
    {
      "inputs": [
        {
          "internalType": "address",
          "name": "_addr",
          "type": "address"
        },
        {
          "internalType": "string",
          "name": "_name",
          "type": "string"
        },
        {
          "internalType": "uint256",
          "name": "_age",
          "type": "uint256"
        },
        {
          "internalType": "string",
          "name": "_designation",
          "type": "string"
        },
        {
          "internalType": "string",
          "name": "_city",
          "type": "string"
        }
      ],
      "name": "addAdmin",
      "outputs": [
        {
          "internalType": "bool",
          "name": "",
          "type": "bool"
        }
      ],
      "stateMutability": "nonpayable",
      "type": "function"
    },
    {
      "inputs": [],
      "name": "ReturnAllAdminList",
      "outputs": [
        {
          "internalType": "address[]",
          "name": "",
          "type": "address[]"
        }
      ],
      "stateMutability": "view",
      "type": "function",
      "constant": true
    },
    {
      "inputs": [
        {
          "internalType": "address",
          "name": "_addr",
          "type": "address"
        }
      ],
      "name": "removeAdmin",
      "outputs": [],
      "stateMutability": "nonpayable",
      "type": "function"
    }
  ],
  "bytecode": "0x608060405234801561001057600080fd5b50336000806101000a81548173ffffffffffffffffffffffffffffffffffffffff021916908373ffffffffffffffffffffffffffffffffffffffff1602179055506116d6806100606000396000f3fe608060405234801561001057600080fd5b50600436106100625760003560e01c80631785f53c1461006757806341858c4b1461008357806373e2372f1461009f5780637fd1be39146100d4578063b00263d914610104578063e9aec38314610122575b600080fd5b610081600480360381019061007c9190610c70565b610152565b005b61009d60048036038101906100989190610c70565b6104af565b005b6100b960048036038101906100b49190610c70565b610580565b6040516100cb96959493929190610d5e565b60405180910390f35b6100ee60048036038101906100e99190610f35565b610774565b6040516100fb919061101f565b60405180910390f35b61010c610a29565b60405161011991906110f8565b60405180910390f35b61013c6004803603810190610137919061111a565b610ac9565b604051610149919061115a565b60405180910390f35b60008054906101000a900473ffffffffffffffffffffffffffffffffffffffff1673ffffffffffffffffffffffffffffffffffffffff163373ffffffffffffffffffffffffffffffffffffffff16146101e0576040517f08c379a00000000000000000000000000000000000000000000000000000000081526004016101d7906111c1565b60405180910390fd5b600460008273ffffffffffffffffffffffffffffffffffffffff1673ffffffffffffffffffffffffffffffffffffffff16815260200190815260200160002060009054906101000a900460ff1661026c576040517f08c379a00000000000000000000000000000000000000000000000000000000081526004016102639061122d565b60405180910390fd5b6000600460008373ffffffffffffffffffffffffffffffffffffffff1673ffffffffffffffffffffffffffffffffffffffff16815260200190815260200160002060006101000a81548160ff0219169083151502179055506000600360006001815260200190815260200160002080549050905060005b818110156104aa578273ffffffffffffffffffffffffffffffffffffffff16600360006001815260200190815260200160002082815481106103285761032761124d565b5b9060005260206000200160009054906101000a900473ffffffffffffffffffffffffffffffffffffffff1673ffffffffffffffffffffffffffffffffffffffff160361049757600360006001815260200190815260200160002060018361038f91906112ab565b815481106103a05761039f61124d565b5b9060005260206000200160009054906101000a900473ffffffffffffffffffffffffffffffffffffffff16600360006001815260200190815260200160002082815481106103f1576103f061124d565b5b9060005260206000200160006101000a81548173ffffffffffffffffffffffffffffffffffffffff021916908373ffffffffffffffffffffffffffffffffffffffff160217905550600360006001815260200190815260200160002080548061045d5761045c6112df565b5b6001900381819060005260206000200160006101000a81549073ffffffffffffffffffffffffffffffffffffffff021916905590556104aa565b80806104a29061130e565b9150506102e3565b505050565b60008054906101000a900473ffffffffffffffffffffffffffffffffffffffff1673ffffffffffffffffffffffffffffffffffffffff163373ffffffffffffffffffffffffffffffffffffffff161461053d576040517f08c379a0000000000000000000000000000000000000000000000000000000008152600401610534906113a2565b60405180910390fd5b806000806101000a81548173ffffffffffffffffffffffffffffffffffffffff021916908373ffffffffffffffffffffffffffffffffffffffff16021790555050565b60026020528060005260406000206000915090508060000154908060010160009054906101000a900473ffffffffffffffffffffffffffffffffffffffff16908060020180546105cf906113f1565b80601f01602080910402602001604051908101604052809291908181526020018280546105fb906113f1565b80156106485780601f1061061d57610100808354040283529160200191610648565b820191906000526020600020905b81548152906001019060200180831161062b57829003601f168201915b505050505090806003015490806004018054610663906113f1565b80601f016020809104026020016040519081016040528092919081815260200182805461068f906113f1565b80156106dc5780601f106106b1576101008083540402835291602001916106dc565b820191906000526020600020905b8154815290600101906020018083116106bf57829003601f168201915b5050505050908060050180546106f1906113f1565b80601f016020809104026020016040519081016040528092919081815260200182805461071d906113f1565b801561076a5780601f1061073f5761010080835404028352916020019161076a565b820191906000526020600020905b81548152906001019060200180831161074d57829003601f168201915b5050505050905086565b60003373ffffffffffffffffffffffffffffffffffffffff1660008054906101000a900473ffffffffffffffffffffffffffffffffffffffff1673ffffffffffffffffffffffffffffffffffffffff16146107d25760009050610a20565b3373ffffffffffffffffffffffffffffffffffffffff1660008054906101000a900473ffffffffffffffffffffffffffffffffffffffff1673ffffffffffffffffffffffffffffffffffffffff161461082a57600080fd5b6001600460008873ffffffffffffffffffffffffffffffffffffffff1673ffffffffffffffffffffffffffffffffffffffff16815260200190815260200160002060006101000a81548160ff0219169083151502179055506003600060018152602001908152602001600020869080600181540180825580915050600190039060005260206000200160009091909190916101000a81548173ffffffffffffffffffffffffffffffffffffffff021916908373ffffffffffffffffffffffffffffffffffffffff1602179055506040518060c0016040528060015481526020018773ffffffffffffffffffffffffffffffffffffffff16815260200186815260200185815260200184815260200183815250600260008873ffffffffffffffffffffffffffffffffffffffff1673ffffffffffffffffffffffffffffffffffffffff1681526020019081526020016000206000820151816000015560208201518160010160006101000a81548173ffffffffffffffffffffffffffffffffffffffff021916908373ffffffffffffffffffffffffffffffffffffffff16021790555060408201518160020190816109e191906115ce565b50606082015181600301556080820151816004019081610a0191906115ce565b5060a0820151816005019081610a1791906115ce565b50905050600190505b95945050505050565b60606003600060018152602001908152602001600020805480602002602001604051908101604052809291908181526020018280548015610abf57602002820191906000526020600020905b8160009054906101000a900473ffffffffffffffffffffffffffffffffffffffff1673ffffffffffffffffffffffffffffffffffffffff1681526020019060010190808311610a75575b5050505050905090565b60008060009054906101000a900473ffffffffffffffffffffffffffffffffffffffff1673ffffffffffffffffffffffffffffffffffffffff168373ffffffffffffffffffffffffffffffffffffffff16148015610b275750607b82145b15610b355760019050610bf8565b60008054906101000a900473ffffffffffffffffffffffffffffffffffffffff1673ffffffffffffffffffffffffffffffffffffffff168373ffffffffffffffffffffffffffffffffffffffff16148015610b91575061014182145b15610bf35773ab8483f64d9c6d1ecf9b849ae677dd3315835cb26000806101000a81548173ffffffffffffffffffffffffffffffffffffffff021916908373ffffffffffffffffffffffffffffffffffffffff16021790555060029050610bf8565b600390505b92915050565b6000604051905090565b600080fd5b600080fd5b600073ffffffffffffffffffffffffffffffffffffffff82169050919050565b6000610c3d82610c12565b9050919050565b610c4d81610c32565b8114610c5857600080fd5b50565b600081359050610c6a81610c44565b92915050565b600060208284031215610c8657610c85610c08565b5b6000610c9484828501610c5b565b91505092915050565b6000819050919050565b610cb081610c9d565b82525050565b610cbf81610c32565b82525050565b600081519050919050565b600082825260208201905092915050565b60005b83811015610cff578082015181840152602081019050610ce4565b83811115610d0e576000848401525b50505050565b6000601f19601f8301169050919050565b6000610d3082610cc5565b610d3a8185610cd0565b9350610d4a818560208601610ce1565b610d5381610d14565b840191505092915050565b600060c082019050610d736000830189610ca7565b610d806020830188610cb6565b8181036040830152610d928187610d25565b9050610da16060830186610ca7565b8181036080830152610db38185610d25565b905081810360a0830152610dc78184610d25565b9050979650505050505050565b600080fd5b600080fd5b7f4e487b7100000000000000000000000000000000000000000000000000000000600052604160045260246000fd5b610e1682610d14565b810181811067ffffffffffffffff82111715610e3557610e34610dde565b5b80604052505050565b6000610e48610bfe565b9050610e548282610e0d565b919050565b600067ffffffffffffffff821115610e7457610e73610dde565b5b610e7d82610d14565b9050602081019050919050565b82818337600083830152505050565b6000610eac610ea784610e59565b610e3e565b905082815260208101848484011115610ec857610ec7610dd9565b5b610ed3848285610e8a565b509392505050565b600082601f830112610ef057610eef610dd4565b5b8135610f00848260208601610e99565b91505092915050565b610f1281610c9d565b8114610f1d57600080fd5b50565b600081359050610f2f81610f09565b92915050565b600080600080600060a08688031215610f5157610f50610c08565b5b6000610f5f88828901610c5b565b955050602086013567ffffffffffffffff811115610f8057610f7f610c0d565b5b610f8c88828901610edb565b9450506040610f9d88828901610f20565b935050606086013567ffffffffffffffff811115610fbe57610fbd610c0d565b5b610fca88828901610edb565b925050608086013567ffffffffffffffff811115610feb57610fea610c0d565b5b610ff788828901610edb565b9150509295509295909350565b60008115159050919050565b61101981611004565b82525050565b60006020820190506110346000830184611010565b92915050565b600081519050919050565b600082825260208201905092915050565b6000819050602082019050919050565b61106f81610c32565b82525050565b60006110818383611066565b60208301905092915050565b6000602082019050919050565b60006110a58261103a565b6110af8185611045565b93506110ba83611056565b8060005b838110156110eb5781516110d28882611075565b97506110dd8361108d565b9250506001810190506110be565b5085935050505092915050565b60006020820190508181036000830152611112818461109a565b905092915050565b6000806040838503121561113157611130610c08565b5b600061113f85828601610c5b565b925050602061115085828601610f20565b9150509250929050565b600060208201905061116f6000830184610ca7565b92915050565b7f596f7520617265206e6f742053757065722041646d696e000000000000000000600082015250565b60006111ab601783610cd0565b91506111b682611175565b602082019050919050565b600060208201905081810360008301526111da8161119e565b9050919050565b7f41646d696e206e6f7420666f756e640000000000000000000000000000000000600082015250565b6000611217600f83610cd0565b9150611222826111e1565b602082019050919050565b600060208201905081810360008301526112468161120a565b9050919050565b7f4e487b7100000000000000000000000000000000000000000000000000000000600052603260045260246000fd5b7f4e487b7100000000000000000000000000000000000000000000000000000000600052601160045260246000fd5b60006112b682610c9d565b91506112c183610c9d565b9250828210156112d4576112d361127c565b5b828203905092915050565b7f4e487b7100000000000000000000000000000000000000000000000000000000600052603160045260246000fd5b600061131982610c9d565b91507fffffffffffffffffffffffffffffffffffffffffffffffffffffffffffffffff820361134b5761134a61127c565b5b600182019050919050565b7f796f7520617265206e6f7420737570657241646d696e00000000000000000000600082015250565b600061138c601683610cd0565b915061139782611356565b602082019050919050565b600060208201905081810360008301526113bb8161137f565b9050919050565b7f4e487b7100000000000000000000000000000000000000000000000000000000600052602260045260246000fd5b6000600282049050600182168061140957607f821691505b60208210810361141c5761141b6113c2565b5b50919050565b60008190508160005260206000209050919050565b60006020601f8301049050919050565b600082821b905092915050565b6000600883026114847fffffffffffffffffffffffffffffffffffffffffffffffffffffffffffffffff82611447565b61148e8683611447565b95508019841693508086168417925050509392505050565b6000819050919050565b60006114cb6114c66114c184610c9d565b6114a6565b610c9d565b9050919050565b6000819050919050565b6114e5836114b0565b6114f96114f1826114d2565b848454611454565b825550505050565b600090565b61150e611501565b6115198184846114dc565b505050565b5b8181101561153d57611532600082611506565b60018101905061151f565b5050565b601f8211156115825761155381611422565b61155c84611437565b8101602085101561156b578190505b61157f61157785611437565b83018261151e565b50505b505050565b600082821c905092915050565b60006115a560001984600802611587565b1980831691505092915050565b60006115be8383611594565b9150826002028217905092915050565b6115d782610cc5565b67ffffffffffffffff8111156115f0576115ef610dde565b5b6115fa82546113f1565b611605828285611541565b600060209050601f8311600181146116385760008415611626578287015190505b61163085826115b2565b865550611698565b601f19841661164686611422565b60005b8281101561166e57848901518255600182019150602085019450602081019050611649565b8683101561168b5784890151611687601f891682611594565b8355505b6001600288020188555050505b50505050505056fea2646970667358221220d7df19aaa87bffa5764cbad9bd98a2f1c2446e9a0e4b5134afd2668b36d8f9af64736f6c634300080f0033",
  "immutableReferences": {},
  "source": "pragma solidity >= 0.5.2;\r\n\r\ncontract Land {\r\n    address superAdmin;\r\n\r\n    constructor() public{\r\n        superAdmin = msg.sender;\r\n    }\r\n\r\n    struct Admin {\r\n        uint id;\r\n        address _addr;\r\n        string name;\r\n        uint age;\r\n        string designation;\r\n        string city;\r\n    }\r\n\r\n    uint adminCount;\r\n\r\n    mapping(address => Admin) public AdminMapping;\r\n    mapping(uint => address[]) allAdminList;\r\n    mapping(address => bool)  RegisteredAdminMapping;\r\n\r\n    function isSuperAdmin(address _addr, uint _secP) public returns(uint){\r\n        if(_addr==superAdmin && _secP == 123)\r\n            return 1;\r\n        else if(_addr == superAdmin && _secP == 321){\r\n            superAdmin = 0xAb8483F64d9C6d1EcF9b849Ae677dD3315835cb2; //remove this line\r\n            return 2;\r\n        }  \r\n        else\r\n            return 3;\r\n    }\r\n\r\n    function changeSuperAdmin(address _addr)public {\r\n        require(msg.sender==superAdmin,\"you are not superAdmin\");\r\n\r\n        superAdmin=_addr;\r\n    }\r\n\r\n    //-----------------------------------------------Admin-----------------------------------------------\r\n\r\n    function addAdmin(address _addr,string memory _name, uint _age, string memory _designation,string memory _city) public returns(bool){\r\n        if(superAdmin!=msg.sender)\r\n            return false;\r\n        require(superAdmin==msg.sender);\r\n        RegisteredAdminMapping[_addr]=true;\r\n        allAdminList[1].push(_addr);\r\n        AdminMapping[_addr] = Admin(adminCount,_addr,_name, _age, _designation,_city);\r\n        return true;\r\n    }\r\n\r\n    function ReturnAllAdminList() public view returns(address[] memory)\r\n    {\r\n        return allAdminList[1];\r\n    }\r\n\r\n    function removeAdmin(address _addr) public{\r\n        require(msg.sender==superAdmin,\"You are not Super Admin\");\r\n        require(RegisteredAdminMapping[_addr],\"Admin not found\");\r\n        RegisteredAdminMapping[_addr]=false;\r\n\r\n\r\n        uint len=allAdminList[1].length;\r\n        for(uint i=0;i<len;i++)\r\n        {\r\n            if(allAdminList[1][i]==_addr)\r\n            {\r\n                allAdminList[1][i]=allAdminList[1][len-1];\r\n                allAdminList[1].pop();\r\n                break;\r\n            }\r\n        }\r\n    }\r\n}",
  "sourcePath": "C:\\Users\\hamza\\Desktop\\FYP1\\backend\\contracts\\EthLand.sol",
  "compiler": {
    "name": "solc",
    "version": "0.8.15+commit.e14f2714.Emscripten.clang"
  },
  "schemaVersion": "3.4.8",
  "updatedAt": "2022-07-31T13:08:40.394Z",
  "networkType": "ethereum",
  "devdoc": {
    "kind": "dev",
    "methods": {},
    "version": 1
  },
  "userdoc": {
    "kind": "user",
    "methods": {},
    "version": 1
  }
}